{
  "_format": "hh-sol-artifact-1",
  "contractName": "SongStorage",
  "sourceName": "contracts/SongStorage.sol",
  "abi": [
    {
      "inputs": [],
      "stateMutability": "nonpayable",
      "type": "constructor"
    },
    {
      "anonymous": false,
      "inputs": [
        {
          "indexed": true,
          "internalType": "address",
          "name": "owner",
          "type": "address"
        },
        {
          "indexed": true,
          "internalType": "address",
          "name": "approved",
          "type": "address"
        },
        {
          "indexed": true,
          "internalType": "uint256",
          "name": "tokenId",
          "type": "uint256"
        }
      ],
      "name": "Approval",
      "type": "event"
    },
    {
      "anonymous": false,
      "inputs": [
        {
          "indexed": true,
          "internalType": "address",
          "name": "owner",
          "type": "address"
        },
        {
          "indexed": true,
          "internalType": "address",
          "name": "operator",
          "type": "address"
        },
        {
          "indexed": false,
          "internalType": "bool",
          "name": "approved",
          "type": "bool"
        }
      ],
      "name": "ApprovalForAll",
      "type": "event"
    },
    {
      "anonymous": false,
      "inputs": [
        {
          "indexed": false,
          "internalType": "address",
          "name": "sender",
          "type": "address"
        },
        {
          "indexed": false,
          "internalType": "uint256",
          "name": "tokenId",
          "type": "uint256"
        }
      ],
      "name": "OnMinted",
      "type": "event"
    },
    {
      "anonymous": false,
      "inputs": [
        {
          "indexed": true,
          "internalType": "address",
          "name": "from",
          "type": "address"
        },
        {
          "indexed": true,
          "internalType": "address",
          "name": "to",
          "type": "address"
        },
        {
          "indexed": true,
          "internalType": "uint256",
          "name": "tokenId",
          "type": "uint256"
        }
      ],
      "name": "Transfer",
      "type": "event"
    },
    {
      "inputs": [
        {
          "internalType": "address",
          "name": "to",
          "type": "address"
        },
        {
          "internalType": "uint256",
          "name": "tokenId",
          "type": "uint256"
        }
      ],
      "name": "approve",
      "outputs": [],
      "stateMutability": "nonpayable",
      "type": "function"
    },
    {
      "inputs": [
        {
          "internalType": "address",
          "name": "owner",
          "type": "address"
        }
      ],
      "name": "balanceOf",
      "outputs": [
        {
          "internalType": "uint256",
          "name": "",
          "type": "uint256"
        }
      ],
      "stateMutability": "view",
      "type": "function"
    },
    {
      "inputs": [
        {
          "internalType": "uint256",
          "name": "tokenId",
          "type": "uint256"
        }
      ],
      "name": "getApproved",
      "outputs": [
        {
          "internalType": "address",
          "name": "",
          "type": "address"
        }
      ],
      "stateMutability": "view",
      "type": "function"
    },
    {
      "inputs": [],
      "name": "getSongs",
      "outputs": [
        {
          "components": [
            {
              "internalType": "uint256",
              "name": "tokenId",
              "type": "uint256"
            },
            {
              "internalType": "string",
              "name": "name",
              "type": "string"
            }
          ],
          "internalType": "struct SongStorage.Song[]",
          "name": "",
          "type": "tuple[]"
        }
      ],
      "stateMutability": "view",
      "type": "function"
    },
    {
      "inputs": [
        {
          "internalType": "address",
          "name": "ownerAddress",
          "type": "address"
        }
      ],
      "name": "getSongsByAddress",
      "outputs": [
        {
          "components": [
            {
              "internalType": "uint256",
              "name": "tokenId",
              "type": "uint256"
            },
            {
              "internalType": "string",
              "name": "name",
              "type": "string"
            }
          ],
          "internalType": "struct SongStorage.Song[]",
          "name": "",
          "type": "tuple[]"
        }
      ],
      "stateMutability": "view",
      "type": "function"
    },
    {
      "inputs": [
        {
          "internalType": "address",
          "name": "owner",
          "type": "address"
        },
        {
          "internalType": "address",
          "name": "operator",
          "type": "address"
        }
      ],
      "name": "isApprovedForAll",
      "outputs": [
        {
          "internalType": "bool",
          "name": "",
          "type": "bool"
        }
      ],
      "stateMutability": "view",
      "type": "function"
    },
    {
      "inputs": [
        {
          "internalType": "string",
          "name": "name",
          "type": "string"
        },
        {
          "internalType": "string",
          "name": "body",
          "type": "string"
        }
      ],
      "name": "mint",
      "outputs": [
        {
          "internalType": "uint256",
          "name": "",
          "type": "uint256"
        }
      ],
      "stateMutability": "nonpayable",
      "type": "function"
    },
    {
      "inputs": [],
      "name": "name",
      "outputs": [
        {
          "internalType": "string",
          "name": "",
          "type": "string"
        }
      ],
      "stateMutability": "view",
      "type": "function"
    },
    {
      "inputs": [
        {
          "internalType": "uint256",
          "name": "tokenId",
          "type": "uint256"
        }
      ],
      "name": "ownerOf",
      "outputs": [
        {
          "internalType": "address",
          "name": "",
          "type": "address"
        }
      ],
      "stateMutability": "view",
      "type": "function"
    },
    {
      "inputs": [
        {
          "internalType": "address",
          "name": "from",
          "type": "address"
        },
        {
          "internalType": "address",
          "name": "to",
          "type": "address"
        },
        {
          "internalType": "uint256",
          "name": "tokenId",
          "type": "uint256"
        }
      ],
      "name": "safeTransferFrom",
      "outputs": [],
      "stateMutability": "nonpayable",
      "type": "function"
    },
    {
      "inputs": [
        {
          "internalType": "address",
          "name": "from",
          "type": "address"
        },
        {
          "internalType": "address",
          "name": "to",
          "type": "address"
        },
        {
          "internalType": "uint256",
          "name": "tokenId",
          "type": "uint256"
        },
        {
          "internalType": "bytes",
          "name": "data",
          "type": "bytes"
        }
      ],
      "name": "safeTransferFrom",
      "outputs": [],
      "stateMutability": "nonpayable",
      "type": "function"
    },
    {
      "inputs": [
        {
          "internalType": "address",
          "name": "operator",
          "type": "address"
        },
        {
          "internalType": "bool",
          "name": "approved",
          "type": "bool"
        }
      ],
      "name": "setApprovalForAll",
      "outputs": [],
      "stateMutability": "nonpayable",
      "type": "function"
    },
    {
      "inputs": [
        {
          "internalType": "bytes4",
          "name": "interfaceId",
          "type": "bytes4"
        }
      ],
      "name": "supportsInterface",
      "outputs": [
        {
          "internalType": "bool",
          "name": "",
          "type": "bool"
        }
      ],
      "stateMutability": "view",
      "type": "function"
    },
    {
      "inputs": [],
      "name": "symbol",
      "outputs": [
        {
          "internalType": "string",
          "name": "",
          "type": "string"
        }
      ],
      "stateMutability": "view",
      "type": "function"
    },
    {
      "inputs": [
        {
          "internalType": "uint256",
          "name": "",
          "type": "uint256"
        }
      ],
      "name": "tokenIdSongMap",
      "outputs": [
        {
          "internalType": "uint256",
          "name": "tokenId",
          "type": "uint256"
        },
        {
          "internalType": "string",
          "name": "name",
          "type": "string"
        }
      ],
      "stateMutability": "view",
      "type": "function"
    },
    {
      "inputs": [
        {
          "internalType": "uint256",
          "name": "tokenId",
          "type": "uint256"
        }
      ],
      "name": "tokenURI",
      "outputs": [
        {
          "internalType": "string",
          "name": "",
          "type": "string"
        }
      ],
      "stateMutability": "view",
      "type": "function"
    },
    {
      "inputs": [
        {
          "internalType": "address",
          "name": "from",
          "type": "address"
        },
        {
          "internalType": "address",
          "name": "to",
          "type": "address"
        },
        {
          "internalType": "uint256",
          "name": "tokenId",
          "type": "uint256"
        }
      ],
      "name": "transferFrom",
      "outputs": [],
      "stateMutability": "nonpayable",
      "type": "function"
    }
  ],
  "bytecode": "0x60806040523480156200001157600080fd5b506040518060400160405280600481526020017f536f6e67000000000000000000000000000000000000000000000000000000008152506040518060400160405280600481526020017f534f4e470000000000000000000000000000000000000000000000000000000081525081600090816200008f919062000324565b508060019081620000a1919062000324565b5050506200040b565b600081519050919050565b7f4e487b7100000000000000000000000000000000000000000000000000000000600052604160045260246000fd5b7f4e487b7100000000000000000000000000000000000000000000000000000000600052602260045260246000fd5b600060028204905060018216806200012c57607f821691505b602082108103620001425762000141620000e4565b5b50919050565b60008190508160005260206000209050919050565b60006020601f8301049050919050565b600082821b905092915050565b600060088302620001ac7fffffffffffffffffffffffffffffffffffffffffffffffffffffffffffffffff826200016d565b620001b886836200016d565b95508019841693508086168417925050509392505050565b6000819050919050565b6000819050919050565b600062000205620001ff620001f984620001d0565b620001da565b620001d0565b9050919050565b6000819050919050565b6200022183620001e4565b6200023962000230826200020c565b8484546200017a565b825550505050565b600090565b6200025062000241565b6200025d81848462000216565b505050565b5b8181101562000285576200027960008262000246565b60018101905062000263565b5050565b601f821115620002d4576200029e8162000148565b620002a9846200015d565b81016020851015620002b9578190505b620002d1620002c8856200015d565b83018262000262565b50505b505050565b600082821c905092915050565b6000620002f960001984600802620002d9565b1980831691505092915050565b6000620003148383620002e6565b9150826002028217905092915050565b6200032f82620000aa565b67ffffffffffffffff8111156200034b576200034a620000b5565b5b62000357825462000113565b6200036482828562000289565b600060209050601f8311600181146200039c576000841562000387578287015190505b62000393858262000306565b86555062000403565b601f198416620003ac8662000148565b60005b82811015620003d657848901518255600182019150602085019450602081019050620003af565b86831015620003f65784890151620003f2601f891682620002e6565b8355505b6001600288020188555050505b505050505050565b6131a9806200041b6000396000f3fe608060405234801561001057600080fd5b506004361061010b5760003560e01c806370a08231116100a2578063a22cb46511610071578063a22cb465146102df578063b88d4fde146102fb578063c87b56dd14610317578063d8086faa14610347578063e985e9c5146103775761010b565b806370a08231146102305780638aa0fdad1461026057806395d89b41146102905780639af9f227146102ae5761010b565b806323b872dd116100de57806323b872dd146101aa57806342842e0e146101c65780635565f660146101e25780636352211e146102005761010b565b806301ffc9a71461011057806306fdde0314610140578063081812fc1461015e578063095ea7b31461018e575b600080fd5b61012a60048036038101906101259190611cd6565b6103a7565b6040516101379190611d1e565b60405180910390f35b610148610489565b6040516101559190611dc9565b60405180910390f35b61017860048036038101906101739190611e21565b61051b565b6040516101859190611e8f565b60405180910390f35b6101a860048036038101906101a39190611ed6565b610561565b005b6101c460048036038101906101bf9190611f16565b610678565b005b6101e060048036038101906101db9190611f16565b6106d8565b005b6101ea6106f8565b6040516101f791906120c1565b60405180910390f35b61021a60048036038101906102159190611e21565b610708565b6040516102279190611e8f565b60405180910390f35b61024a600480360381019061024591906120e3565b6107b9565b604051610257919061211f565b60405180910390f35b61027a6004803603810190610275919061226f565b610870565b604051610287919061211f565b60405180910390f35b61029861094e565b6040516102a59190611dc9565b60405180910390f35b6102c860048036038101906102c39190611e21565b6109e0565b6040516102d69291906122e7565b60405180910390f35b6102f960048036038101906102f49190612343565b610a8c565b005b61031560048036038101906103109190612424565b610aa2565b005b610331600480360381019061032c9190611e21565b610b04565b60405161033e9190611dc9565b60405180910390f35b610361600480360381019061035c91906120e3565b610c16565b60405161036e91906120c1565b60405180910390f35b610391600480360381019061038c91906124a7565b610dd9565b60405161039e9190611d1e565b60405180910390f35b60007f80ac58cd000000000000000000000000000000000000000000000000000000007bffffffffffffffffffffffffffffffffffffffffffffffffffffffff1916827bffffffffffffffffffffffffffffffffffffffffffffffffffffffff1916148061047257507f5b5e139f000000000000000000000000000000000000000000000000000000007bffffffffffffffffffffffffffffffffffffffffffffffffffffffff1916827bffffffffffffffffffffffffffffffffffffffffffffffffffffffff1916145b80610482575061048182610e6d565b5b9050919050565b60606000805461049890612516565b80601f01602080910402602001604051908101604052809291908181526020018280546104c490612516565b80156105115780601f106104e657610100808354040283529160200191610511565b820191906000526020600020905b8154815290600101906020018083116104f457829003601f168201915b5050505050905090565b600061052682610ed7565b6004600083815260200190815260200160002060009054906101000a900473ffffffffffffffffffffffffffffffffffffffff169050919050565b600061056c82610708565b90508073ffffffffffffffffffffffffffffffffffffffff168373ffffffffffffffffffffffffffffffffffffffff16036105dc576040517f08c379a00000000000000000000000000000000000000000000000000000000081526004016105d3906125b9565b60405180910390fd5b8073ffffffffffffffffffffffffffffffffffffffff166105fb610f22565b73ffffffffffffffffffffffffffffffffffffffff16148061062a575061062981610624610f22565b610dd9565b5b610669576040517f08c379a00000000000000000000000000000000000000000000000000000000081526004016106609061264b565b60405180910390fd5b6106738383610f2a565b505050565b610689610683610f22565b82610fe3565b6106c8576040517f08c379a00000000000000000000000000000000000000000000000000000000081526004016106bf906126dd565b60405180910390fd5b6106d3838383611078565b505050565b6106f383838360405180602001604052806000815250610aa2565b505050565b606061070333610c16565b905090565b6000806002600084815260200190815260200160002060009054906101000a900473ffffffffffffffffffffffffffffffffffffffff169050600073ffffffffffffffffffffffffffffffffffffffff168173ffffffffffffffffffffffffffffffffffffffff16036107b0576040517f08c379a00000000000000000000000000000000000000000000000000000000081526004016107a790612749565b60405180910390fd5b80915050919050565b60008073ffffffffffffffffffffffffffffffffffffffff168273ffffffffffffffffffffffffffffffffffffffff1603610829576040517f08c379a0000000000000000000000000000000000000000000000000000000008152600401610820906127db565b60405180910390fd5b600360008373ffffffffffffffffffffffffffffffffffffffff1673ffffffffffffffffffffffffffffffffffffffff168152602001908152602001600020549050919050565b60008061087d60076112de565b905061088933826112ec565b610893818461130a565b6108b660405180606001604052806025815260200161314f602591398233611377565b6108c06007611416565b6040518060400160405280828152602001858152506008600083815260200190815260200160002060008201518160000155602082015181600101908161090791906129a7565b509050507fb4b4f0a13e51dea5541c25d863f5f959b08d56976767d576dc9ffc117590ab8f338260405161093c929190612a79565b60405180910390a18091505092915050565b60606001805461095d90612516565b80601f016020809104026020016040519081016040528092919081815260200182805461098990612516565b80156109d65780601f106109ab576101008083540402835291602001916109d6565b820191906000526020600020905b8154815290600101906020018083116109b957829003601f168201915b5050505050905090565b6008602052806000526040600020600091509050806000015490806001018054610a0990612516565b80601f0160208091040260200160405190810160405280929190818152602001828054610a3590612516565b8015610a825780601f10610a5757610100808354040283529160200191610a82565b820191906000526020600020905b815481529060010190602001808311610a6557829003601f168201915b5050505050905082565b610a9e610a97610f22565b838361142c565b5050565b610ab3610aad610f22565b83610fe3565b610af2576040517f08c379a0000000000000000000000000000000000000000000000000000000008152600401610ae9906126dd565b60405180910390fd5b610afe84848484611598565b50505050565b6060610b0f82610ed7565b6000600660008481526020019081526020016000208054610b2f90612516565b80601f0160208091040260200160405190810160405280929190818152602001828054610b5b90612516565b8015610ba85780601f10610b7d57610100808354040283529160200191610ba8565b820191906000526020600020905b815481529060010190602001808311610b8b57829003601f168201915b505050505090506000610bb96115f4565b90506000815103610bce578192505050610c11565b600082511115610c03578082604051602001610beb929190612ade565b60405160208183030381529060405292505050610c11565b610c0c8461160b565b925050505b919050565b60606000610c23836107b9565b905060008167ffffffffffffffff811115610c4157610c40612144565b5b604051908082528060200260200182016040528015610c7a57816020015b610c67611c50565b815260200190600190039081610c5f5790505b5090506000610c8960076112de565b90506000805b82811015610dcc578673ffffffffffffffffffffffffffffffffffffffff16610cb782610708565b73ffffffffffffffffffffffffffffffffffffffff1603610db9576008600082815260200190815260200160002060405180604001604052908160008201548152602001600182018054610d0a90612516565b80601f0160208091040260200160405190810160405280929190818152602001828054610d3690612516565b8015610d835780601f10610d5857610100808354040283529160200191610d83565b820191906000526020600020905b815481529060010190602001808311610d6657829003601f168201915b505050505081525050848381518110610d9f57610d9e612b02565b5b60200260200101819052508180610db590612b60565b9250505b8080610dc490612b60565b915050610c8f565b5082945050505050919050565b6000600560008473ffffffffffffffffffffffffffffffffffffffff1673ffffffffffffffffffffffffffffffffffffffff16815260200190815260200160002060008373ffffffffffffffffffffffffffffffffffffffff1673ffffffffffffffffffffffffffffffffffffffff16815260200190815260200160002060009054906101000a900460ff16905092915050565b60007f01ffc9a7000000000000000000000000000000000000000000000000000000007bffffffffffffffffffffffffffffffffffffffffffffffffffffffff1916827bffffffffffffffffffffffffffffffffffffffffffffffffffffffff1916149050919050565b610ee081611673565b610f1f576040517f08c379a0000000000000000000000000000000000000000000000000000000008152600401610f1690612749565b60405180910390fd5b50565b600033905090565b816004600083815260200190815260200160002060006101000a81548173ffffffffffffffffffffffffffffffffffffffff021916908373ffffffffffffffffffffffffffffffffffffffff160217905550808273ffffffffffffffffffffffffffffffffffffffff16610f9d83610708565b73ffffffffffffffffffffffffffffffffffffffff167f8c5be1e5ebec7d5bd14f71427d1e84f3dd0314c0f7b2291e5b200ac8c7c3b92560405160405180910390a45050565b600080610fef83610708565b90508073ffffffffffffffffffffffffffffffffffffffff168473ffffffffffffffffffffffffffffffffffffffff16148061103157506110308185610dd9565b5b8061106f57508373ffffffffffffffffffffffffffffffffffffffff166110578461051b565b73ffffffffffffffffffffffffffffffffffffffff16145b91505092915050565b8273ffffffffffffffffffffffffffffffffffffffff1661109882610708565b73ffffffffffffffffffffffffffffffffffffffff16146110ee576040517f08c379a00000000000000000000000000000000000000000000000000000000081526004016110e590612c1a565b60405180910390fd5b600073ffffffffffffffffffffffffffffffffffffffff168273ffffffffffffffffffffffffffffffffffffffff160361115d576040517f08c379a000000000000000000000000000000000000000000000000000000000815260040161115490612cac565b60405180910390fd5b6111688383836116df565b611173600082610f2a565b6001600360008573ffffffffffffffffffffffffffffffffffffffff1673ffffffffffffffffffffffffffffffffffffffff16815260200190815260200160002060008282546111c39190612ccc565b925050819055506001600360008473ffffffffffffffffffffffffffffffffffffffff1673ffffffffffffffffffffffffffffffffffffffff168152602001908152602001600020600082825461121a9190612d00565b92505081905550816002600083815260200190815260200160002060006101000a81548173ffffffffffffffffffffffffffffffffffffffff021916908373ffffffffffffffffffffffffffffffffffffffff160217905550808273ffffffffffffffffffffffffffffffffffffffff168473ffffffffffffffffffffffffffffffffffffffff167fddf252ad1be2c89b69c2b068fc378daa952ba7f163c4a11628f55a4df523b3ef60405160405180910390a46112d98383836116e4565b505050565b600081600001549050919050565b6113068282604051806020016040528060008152506116e9565b5050565b61131382611673565b611352576040517f08c379a000000000000000000000000000000000000000000000000000000000815260040161134990612da6565b60405180910390fd5b8060066000848152602001908152602001600020908161137291906129a7565b505050565b61141183838360405160240161138f93929190612dc6565b6040516020818303038152906040527f1c7ec448000000000000000000000000000000000000000000000000000000007bffffffffffffffffffffffffffffffffffffffffffffffffffffffff19166020820180517bffffffffffffffffffffffffffffffffffffffffffffffffffffffff8381831617835250505050611744565b505050565b6001816000016000828254019250508190555050565b8173ffffffffffffffffffffffffffffffffffffffff168373ffffffffffffffffffffffffffffffffffffffff160361149a576040517f08c379a000000000000000000000000000000000000000000000000000000000815260040161149190612e50565b60405180910390fd5b80600560008573ffffffffffffffffffffffffffffffffffffffff1673ffffffffffffffffffffffffffffffffffffffff16815260200190815260200160002060008473ffffffffffffffffffffffffffffffffffffffff1673ffffffffffffffffffffffffffffffffffffffff16815260200190815260200160002060006101000a81548160ff0219169083151502179055508173ffffffffffffffffffffffffffffffffffffffff168373ffffffffffffffffffffffffffffffffffffffff167f17307eab39ab6107e8899845ad3d59bd9653f200f220920489ca2b5937696c318360405161158b9190611d1e565b60405180910390a3505050565b6115a3848484611078565b6115af8484848461176d565b6115ee576040517f08c379a00000000000000000000000000000000000000000000000000000000081526004016115e590612ee2565b60405180910390fd5b50505050565b606060405180602001604052806000815250905090565b606061161682610ed7565b60006116206115f4565b90506000815111611640576040518060200160405280600081525061166b565b8061164a846118f4565b60405160200161165b929190612ade565b6040516020818303038152906040525b915050919050565b60008073ffffffffffffffffffffffffffffffffffffffff166002600084815260200190815260200160002060009054906101000a900473ffffffffffffffffffffffffffffffffffffffff1673ffffffffffffffffffffffffffffffffffffffff1614159050919050565b505050565b505050565b6116f38383611a54565b611700600084848461176d565b61173f576040517f08c379a000000000000000000000000000000000000000000000000000000000815260040161173690612ee2565b60405180910390fd5b505050565b60008151905060006a636f6e736f6c652e6c6f679050602083016000808483855afa5050505050565b600061178e8473ffffffffffffffffffffffffffffffffffffffff16611c2d565b156118e7578373ffffffffffffffffffffffffffffffffffffffff1663150b7a026117b7610f22565b8786866040518563ffffffff1660e01b81526004016117d99493929190612f57565b6020604051808303816000875af192505050801561181557506040513d601f19601f820116820180604052508101906118129190612fb8565b60015b611897573d8060008114611845576040519150601f19603f3d011682016040523d82523d6000602084013e61184a565b606091505b50600081510361188f576040517f08c379a000000000000000000000000000000000000000000000000000000000815260040161188690612ee2565b60405180910390fd5b805181602001fd5b63150b7a0260e01b7bffffffffffffffffffffffffffffffffffffffffffffffffffffffff1916817bffffffffffffffffffffffffffffffffffffffffffffffffffffffff1916149150506118ec565b600190505b949350505050565b60606000820361193b576040518060400160405280600181526020017f30000000000000000000000000000000000000000000000000000000000000008152509050611a4f565b600082905060005b6000821461196d57808061195690612b60565b915050600a826119669190613014565b9150611943565b60008167ffffffffffffffff81111561198957611988612144565b5b6040519080825280601f01601f1916602001820160405280156119bb5781602001600182028036833780820191505090505b5090505b60008514611a48576001826119d49190612ccc565b9150600a856119e39190613045565b60306119ef9190612d00565b60f81b818381518110611a0557611a04612b02565b5b60200101907effffffffffffffffffffffffffffffffffffffffffffffffffffffffffffff1916908160001a905350600a85611a419190613014565b94506119bf565b8093505050505b919050565b600073ffffffffffffffffffffffffffffffffffffffff168273ffffffffffffffffffffffffffffffffffffffff1603611ac3576040517f08c379a0000000000000000000000000000000000000000000000000000000008152600401611aba906130c2565b60405180910390fd5b611acc81611673565b15611b0c576040517f08c379a0000000000000000000000000000000000000000000000000000000008152600401611b039061312e565b60405180910390fd5b611b18600083836116df565b6001600360008473ffffffffffffffffffffffffffffffffffffffff1673ffffffffffffffffffffffffffffffffffffffff1681526020019081526020016000206000828254611b689190612d00565b92505081905550816002600083815260200190815260200160002060006101000a81548173ffffffffffffffffffffffffffffffffffffffff021916908373ffffffffffffffffffffffffffffffffffffffff160217905550808273ffffffffffffffffffffffffffffffffffffffff16600073ffffffffffffffffffffffffffffffffffffffff167fddf252ad1be2c89b69c2b068fc378daa952ba7f163c4a11628f55a4df523b3ef60405160405180910390a4611c29600083836116e4565b5050565b6000808273ffffffffffffffffffffffffffffffffffffffff163b119050919050565b604051806040016040528060008152602001606081525090565b6000604051905090565b600080fd5b600080fd5b60007fffffffff0000000000000000000000000000000000000000000000000000000082169050919050565b611cb381611c7e565b8114611cbe57600080fd5b50565b600081359050611cd081611caa565b92915050565b600060208284031215611cec57611ceb611c74565b5b6000611cfa84828501611cc1565b91505092915050565b60008115159050919050565b611d1881611d03565b82525050565b6000602082019050611d336000830184611d0f565b92915050565b600081519050919050565b600082825260208201905092915050565b60005b83811015611d73578082015181840152602081019050611d58565b60008484015250505050565b6000601f19601f8301169050919050565b6000611d9b82611d39565b611da58185611d44565b9350611db5818560208601611d55565b611dbe81611d7f565b840191505092915050565b60006020820190508181036000830152611de38184611d90565b905092915050565b6000819050919050565b611dfe81611deb565b8114611e0957600080fd5b50565b600081359050611e1b81611df5565b92915050565b600060208284031215611e3757611e36611c74565b5b6000611e4584828501611e0c565b91505092915050565b600073ffffffffffffffffffffffffffffffffffffffff82169050919050565b6000611e7982611e4e565b9050919050565b611e8981611e6e565b82525050565b6000602082019050611ea46000830184611e80565b92915050565b611eb381611e6e565b8114611ebe57600080fd5b50565b600081359050611ed081611eaa565b92915050565b60008060408385031215611eed57611eec611c74565b5b6000611efb85828601611ec1565b9250506020611f0c85828601611e0c565b9150509250929050565b600080600060608486031215611f2f57611f2e611c74565b5b6000611f3d86828701611ec1565b9350506020611f4e86828701611ec1565b9250506040611f5f86828701611e0c565b9150509250925092565b600081519050919050565b600082825260208201905092915050565b6000819050602082019050919050565b611f9e81611deb565b82525050565b600082825260208201905092915050565b6000611fc082611d39565b611fca8185611fa4565b9350611fda818560208601611d55565b611fe381611d7f565b840191505092915050565b60006040830160008301516120066000860182611f95565b506020830151848203602086015261201e8282611fb5565b9150508091505092915050565b60006120378383611fee565b905092915050565b6000602082019050919050565b600061205782611f69565b6120618185611f74565b93508360208202850161207385611f85565b8060005b858110156120af5784840389528151612090858261202b565b945061209b8361203f565b925060208a01995050600181019050612077565b50829750879550505050505092915050565b600060208201905081810360008301526120db818461204c565b905092915050565b6000602082840312156120f9576120f8611c74565b5b600061210784828501611ec1565b91505092915050565b61211981611deb565b82525050565b60006020820190506121346000830184612110565b92915050565b600080fd5b600080fd5b7f4e487b7100000000000000000000000000000000000000000000000000000000600052604160045260246000fd5b61217c82611d7f565b810181811067ffffffffffffffff8211171561219b5761219a612144565b5b80604052505050565b60006121ae611c6a565b90506121ba8282612173565b919050565b600067ffffffffffffffff8211156121da576121d9612144565b5b6121e382611d7f565b9050602081019050919050565b82818337600083830152505050565b600061221261220d846121bf565b6121a4565b90508281526020810184848401111561222e5761222d61213f565b5b6122398482856121f0565b509392505050565b600082601f8301126122565761225561213a565b5b81356122668482602086016121ff565b91505092915050565b6000806040838503121561228657612285611c74565b5b600083013567ffffffffffffffff8111156122a4576122a3611c79565b5b6122b085828601612241565b925050602083013567ffffffffffffffff8111156122d1576122d0611c79565b5b6122dd85828601612241565b9150509250929050565b60006040820190506122fc6000830185612110565b818103602083015261230e8184611d90565b90509392505050565b61232081611d03565b811461232b57600080fd5b50565b60008135905061233d81612317565b92915050565b6000806040838503121561235a57612359611c74565b5b600061236885828601611ec1565b92505060206123798582860161232e565b9150509250929050565b600067ffffffffffffffff82111561239e5761239d612144565b5b6123a782611d7f565b9050602081019050919050565b60006123c76123c284612383565b6121a4565b9050828152602081018484840111156123e3576123e261213f565b5b6123ee8482856121f0565b509392505050565b600082601f83011261240b5761240a61213a565b5b813561241b8482602086016123b4565b91505092915050565b6000806000806080858703121561243e5761243d611c74565b5b600061244c87828801611ec1565b945050602061245d87828801611ec1565b935050604061246e87828801611e0c565b925050606085013567ffffffffffffffff81111561248f5761248e611c79565b5b61249b878288016123f6565b91505092959194509250565b600080604083850312156124be576124bd611c74565b5b60006124cc85828601611ec1565b92505060206124dd85828601611ec1565b9150509250929050565b7f4e487b7100000000000000000000000000000000000000000000000000000000600052602260045260246000fd5b6000600282049050600182168061252e57607f821691505b602082108103612541576125406124e7565b5b50919050565b7f4552433732313a20617070726f76616c20746f2063757272656e74206f776e6560008201527f7200000000000000000000000000000000000000000000000000000000000000602082015250565b60006125a3602183611d44565b91506125ae82612547565b604082019050919050565b600060208201905081810360008301526125d281612596565b9050919050565b7f4552433732313a20617070726f76652063616c6c6572206973206e6f7420746f60008201527f6b656e206f776e6572206e6f7220617070726f76656420666f7220616c6c0000602082015250565b6000612635603e83611d44565b9150612640826125d9565b604082019050919050565b6000602082019050818103600083015261266481612628565b9050919050565b7f4552433732313a2063616c6c6572206973206e6f7420746f6b656e206f776e6560008201527f72206e6f7220617070726f766564000000000000000000000000000000000000602082015250565b60006126c7602e83611d44565b91506126d28261266b565b604082019050919050565b600060208201905081810360008301526126f6816126ba565b9050919050565b7f4552433732313a20696e76616c696420746f6b656e2049440000000000000000600082015250565b6000612733601883611d44565b915061273e826126fd565b602082019050919050565b6000602082019050818103600083015261276281612726565b9050919050565b7f4552433732313a2061646472657373207a65726f206973206e6f74206120766160008201527f6c6964206f776e65720000000000000000000000000000000000000000000000602082015250565b60006127c5602983611d44565b91506127d082612769565b604082019050919050565b600060208201905081810360008301526127f4816127b8565b9050919050565b60008190508160005260206000209050919050565b60006020601f8301049050919050565b600082821b905092915050565b60006008830261285d7fffffffffffffffffffffffffffffffffffffffffffffffffffffffffffffffff82612820565b6128678683612820565b95508019841693508086168417925050509392505050565b6000819050919050565b60006128a461289f61289a84611deb565b61287f565b611deb565b9050919050565b6000819050919050565b6128be83612889565b6128d26128ca826128ab565b84845461282d565b825550505050565b600090565b6128e76128da565b6128f28184846128b5565b505050565b5b818110156129165761290b6000826128df565b6001810190506128f8565b5050565b601f82111561295b5761292c816127fb565b61293584612810565b81016020851015612944578190505b61295861295085612810565b8301826128f7565b50505b505050565b600082821c905092915050565b600061297e60001984600802612960565b1980831691505092915050565b6000612997838361296d565b9150826002028217905092915050565b6129b082611d39565b67ffffffffffffffff8111156129c9576129c8612144565b5b6129d38254612516565b6129de82828561291a565b600060209050601f831160018114612a1157600084156129ff578287015190505b612a09858261298b565b865550612a71565b601f198416612a1f866127fb565b60005b82811015612a4757848901518255600182019150602085019450602081019050612a22565b86831015612a645784890151612a60601f89168261296d565b8355505b6001600288020188555050505b505050505050565b6000604082019050612a8e6000830185611e80565b612a9b6020830184612110565b9392505050565b600081905092915050565b6000612ab882611d39565b612ac28185612aa2565b9350612ad2818560208601611d55565b80840191505092915050565b6000612aea8285612aad565b9150612af68284612aad565b91508190509392505050565b7f4e487b7100000000000000000000000000000000000000000000000000000000600052603260045260246000fd5b7f4e487b7100000000000000000000000000000000000000000000000000000000600052601160045260246000fd5b6000612b6b82611deb565b91507fffffffffffffffffffffffffffffffffffffffffffffffffffffffffffffffff8203612b9d57612b9c612b31565b5b600182019050919050565b7f4552433732313a207472616e736665722066726f6d20696e636f72726563742060008201527f6f776e6572000000000000000000000000000000000000000000000000000000602082015250565b6000612c04602583611d44565b9150612c0f82612ba8565b604082019050919050565b60006020820190508181036000830152612c3381612bf7565b9050919050565b7f4552433732313a207472616e7366657220746f20746865207a65726f2061646460008201527f7265737300000000000000000000000000000000000000000000000000000000602082015250565b6000612c96602483611d44565b9150612ca182612c3a565b604082019050919050565b60006020820190508181036000830152612cc581612c89565b9050919050565b6000612cd782611deb565b9150612ce283611deb565b9250828203905081811115612cfa57612cf9612b31565b5b92915050565b6000612d0b82611deb565b9150612d1683611deb565b9250828201905080821115612d2e57612d2d612b31565b5b92915050565b7f45524337323155524953746f726167653a2055524920736574206f66206e6f6e60008201527f6578697374656e7420746f6b656e000000000000000000000000000000000000602082015250565b6000612d90602e83611d44565b9150612d9b82612d34565b604082019050919050565b60006020820190508181036000830152612dbf81612d83565b9050919050565b60006060820190508181036000830152612de08186611d90565b9050612def6020830185612110565b612dfc6040830184611e80565b949350505050565b7f4552433732313a20617070726f766520746f2063616c6c657200000000000000600082015250565b6000612e3a601983611d44565b9150612e4582612e04565b602082019050919050565b60006020820190508181036000830152612e6981612e2d565b9050919050565b7f4552433732313a207472616e7366657220746f206e6f6e20455243373231526560008201527f63656976657220696d706c656d656e7465720000000000000000000000000000602082015250565b6000612ecc603283611d44565b9150612ed782612e70565b604082019050919050565b60006020820190508181036000830152612efb81612ebf565b9050919050565b600081519050919050565b600082825260208201905092915050565b6000612f2982612f02565b612f338185612f0d565b9350612f43818560208601611d55565b612f4c81611d7f565b840191505092915050565b6000608082019050612f6c6000830187611e80565b612f796020830186611e80565b612f866040830185612110565b8181036060830152612f988184612f1e565b905095945050505050565b600081519050612fb281611caa565b92915050565b600060208284031215612fce57612fcd611c74565b5b6000612fdc84828501612fa3565b91505092915050565b7f4e487b7100000000000000000000000000000000000000000000000000000000600052601260045260246000fd5b600061301f82611deb565b915061302a83611deb565b92508261303a57613039612fe5565b5b828204905092915050565b600061305082611deb565b915061305b83611deb565b92508261306b5761306a612fe5565b5b828206905092915050565b7f4552433732313a206d696e7420746f20746865207a65726f2061646472657373600082015250565b60006130ac602083611d44565b91506130b782613076565b602082019050919050565b600060208201905081810360008301526130db8161309f565b9050919050565b7f4552433732313a20746f6b656e20616c7265616479206d696e74656400000000600082015250565b6000613118601c83611d44565b9150613123826130e2565b602082019050919050565b600060208201905081810360008301526131478161310b565b905091905056fe416e204e465420772f20494420257320686173206265656e206d696e74656420746f202573a2646970667358221220041b589aaca384576437a4e5985ff09239c074c6233124405e74bf01e03df8e764736f6c63430008110033",
  "linkReferences": {},
  "deployedLinkReferences": {}
}